:100000000C94B2000C94CF000C94CF000C94CF0051
:100010000C94CF000C94CF000C94CF000C94CF0024
:100020000C94CF000C9455020C94CF000C94CF008C
:100030000C94CF000C94CF000C94CF000C94CF0004
:100040000C94CF000C94CF000C94CF000C94CF00F4
:100050000C94CF000C94CF000C94CF000C94CF00E4
:100060000C94CF000C94CF000C94CF000C94CF00D4
:100070000C94CF000C94CF000C94CF000C94CF00C4
:100080000C94CF000C94CF000C94CF000C94CF00B4
:100090000C94CF000C94CF000C94CF000C94CF00A4
:1000A0000C94CF000C94CF000C94CF000C94CF0094
:1000B0000C94CF00084AD73B3BCE016E84BCBFFDF9
:1000C000C12F3D6C74319ABD56833DDA3D00C77F28
:1000D00011BED9E4BB4C3E916BAAAABE00000080C1
:1000E0003F07634236B79BD8A71A39685618AEBA8D
:1000F000AB558C1D3CB7CC5763BD6DEDFD753EF621
:10010000177231BF000000803F08000000BE92243B
:1001100049123EABAAAA2ABECDCCCC4C3E00000070
:1001200080BEABAAAAAA3E00000000BF000000806B
:100130003F0000000000084178D3BB4387D1133D46
:10014000190E3CC3BD4282AD2B3E68EC8276BED90F
:100150008FE1A93E4C80EFFFBE01C4FF7F3F00004E
:100160000000000011241FBECFEFD8E0DEBFCDBFDE
:1001700011E0A0E0B1E0E2E8F0E102C005900D92EC
:10018000AA31B107D9F721E0AAE1B1E001C01D927F
:10019000AC35B207E1F70E945A010C943F080C9469
:1001A00000001092B90088E48093B800089584EAB2
:1001B0008093BC008091BC008823E4F7089584E913
:1001C0008093BC0008958093BB0084E88093BC00BA
:1001D0008091BC008823E4F7089584EC8093BC00F0
:1001E0008091BC008823E4F78091BB00089584E8E7
:1001F0008093BC008091BC008823E4F78091BB0011
:1002000008958091B900887F0895E4E6F0E0808148
:100210008E7F8083ACE7B0E08C9180648C938C916E
:100220008F778C93EAE7F0E0808181608083808122
:10023000826080838081846080838C918E7F8C93A8
:100240008C918D7F8C938C918B7F8C938C91877FFD
:100250008C93808180628083ABE7B0E08C918E7F4D
:100260008C938C918D7F8C938C918B7F8C93AEE74C
:10027000B0E08C9181608C938081806880838081E4
:100280008064808308950E9405010E94430287E6EE
:1002900090E00E9408040E94930163E08AE10E94BA
:1002A000C20160E08BE10E94C20160E08CE10E942B
:1002B000C2010895CF93DF93CDB7DEB72A970FB66B
:1002C000F894DEBF0FBECDBF0E94430110924801DB
:1002D0001092490110924A0110924B0110923E0176
:1002E00010923F0110924001109241010E947A0247
:1002F000809178009091790090932D0180932C014A
:100300004AE0BE016F5F7F4F0E940A0880E091E0E3
:100310000E941E04CE0101960E941E0486E191E017
:100320000E941E04E3CF0E94D1000E94D7000E94C9
:1003300001018830F9F480ED0E94E3000E94010180
:100340008831D1F48BE60E94E3000E9401018832DB
:10035000A9F480E00E94E3000E940101883281F448
:100360000E94DF008FE99FE00197F1F700C00000D5
:1003700080E008958FEF08958FEF08958FEF08952F
:100380008FEF0895CF93DF93C82FD62F0E94D1000F
:100390000E94D7000E9401018830E9F480ED0E949C
:1003A000E3000E9401018831C1F48C2F0E94E30018
:1003B0000E940101883299F48D2F0E94E3000E946F
:1003C0000101883271F40E94DF0085E38A95F1F71C
:1003D000000080E007C08FEF05C08FEF03C08FEFF4
:1003E00001C08FEFDF91CF9108950F931F93CF93AB
:1003F000C82F8B010E94D7000E9401018830B1F5FF
:1004000080ED0E94E3000E940101883189F58C2F64
:100410000E94E3000E940101883261F50E94DF0022
:1004200085E38A95F1F700000E94D7000E94010140
:10043000883011F581ED0E94E3000E9401018034B3
:10044000E9F40E94ED00F801108281830E94F70018
:10045000F80120813181282B318320830E94DF0025
:10046000F5E3FA95F1F7000080E009C08FEF07C0CF
:100470008FEF05C08FEF03C08FEF01C08FEFCF91DB
:100480001F910F910895F8941092B000E1EBF0E005
:1004900010821092B200808183608083E0E7F0E0F8
:1004A000808181608083789408951F920F920FB6A7
:1004B0000F9211248F939F93AF93BF938091480124
:1004C00090914901A0914A01B0914B010196A11D63
:1004D000B11D8093480190934901A0934A01B093C4
:1004E0004B01BF91AF919F918F910F900FBE0F90D5
:1004F0001F9018954F925F926F927F928F929F926A
:10050000AF92BF92CF92DF92EF92FF92CF93DF93A1
:1005100000D000D0CDB7DEB76CE471E08BE30E9471
:10052000F5016EE271E08DE30E94F50164E371E094
:100530008FE30E94F50162E271E083E40E94F5011D
:1005400062E271E083E40E94F50166E471E085E413
:100550000E94F50166E571E087E40E94F501609173
:100560004C0170914D01072E000C880B990B0E94D5
:100570003B0520E030E046E953E40E942C0420E0F3
:1005800030E040E858E30E94F6052DEC3CEC4CE1ED
:1005900051E40E94F6052B013C0160933A017093EF
:1005A0003B0180933C0190933D0160912E0170913D
:1005B0002F01072E000C880B990B0E943B0520E0B1
:1005C00030E84EE554E40E942B0420E030E040E89F
:1005D00058E30E94F6052DEC3CEC4CE151E40E94FE
:1005E000F6054B015C0160933601709337018093EF
:1005F0003801909339016091340170913501072ED3
:10060000000C880B990B0E943B0520E030E042EF84
:1006100053E40E942C0420E030E040E858E30E94BC
:10062000F6052DEC3CEC4CE151E40E94F6056B0123
:100630007C01609358017093590180935A01909303
:100640005B016091220170912301072E000C880B41
:10065000990B0E943B0520E030E04CE053E40E94FF
:100660002C0420E030E043E053E40E94C704609390
:1006700028017093290180932A0190932B016091A6
:10068000460170914701072E000C880B990B0E94C0
:100690003B0520E030E046E952E40E942C0420E0D3
:1006A00030E043E053E40E94C70460931A01709362
:1006B0001B0180931C0190931D0160915601709164
:1006C0005701072E000C880B990B0E943B0520E078
:1006D00030E047E053E40E942B0420E030E043E0A8
:1006E00053E40E94C70460933001709331018093FA
:1006F00032019093330120E030E040E050E4C30148
:10070000B2010E94630669837A838B839C8320E015
:1007100030E040E050E4C701B6010E9463066B017F
:100720007C01A701960169817A818B819C810E945D
:100730002C040E94B9069B01AC01C501B4010E94C2
:10074000C7040E94980420E030E044E353E40E9490
:10075000F6052BED3FE049E450E40E94C7042AE986
:1007600039E949E15FE30E942C04609342017093F0
:100770004301809344019093450177FA709477F890
:10078000709420E030E040E050E4C501B4010E94E4
:1007900063064B015C01A5019401C701B6010E94EB
:1007A0002C040E94B9069B01AC01C301B2010E9456
:1007B000C7040E94980420E030E044E353E40E9420
:1007C000F6052BED3FE049E450E40E94C70420E029
:1007D00030E040E850E40E942B0460935201709393
:1007E000530180935401909355010F900F900F90F7
:1007F0000F90DF91CF91FF90EF90DF90CF90BF905F
:10080000AF909F908F907F906F905F904F900895E2
:100810009093C5008093C40088E18093C100E2EC0E
:10082000F0E086E0808380818860808308959091E5
:10083000C00095FFFCCF8093C6000895CF93DF934F
:10084000EC0103C00E941704219688818111FACF20
:10085000DF91CF9108955058BB27AA270E944304E7
:100860000C94B4050E94A60538F00E94AD0520F056
:1008700039F49F3F19F426F40C947C050EF4E095AE
:10088000E7FB0C947605E92F0E94C50558F3BA17CB
:10089000620773078407950720F079F4A6F50C9496
:1008A000E7050EF4E0950B2EBA2FA02D0B01B90130
:1008B00090010C01CA01A0011124FF27591B99F0D6
:1008C000593F50F4503E68F11A16F040A22F232FE2
:1008D000342F4427585FF3CF469537952795A79532
:1008E000F0405395C9F77EF41F16BA0B620B730BD9
:1008F000840BBAF09150A1F0FF0FBB1F661F771F4A
:10090000881FC2F70EC0BA0F621F731F841F48F4FE
:10091000879577956795B795F7959E3F08F0B0CF87
:100920009395880F08F09927EE0F9795879508956E
:10093000DF93DD27B92FBF7740E85FE31616170670
:1009400048075B0718F4D92F0E94EE059F938F93F9
:100950007F936F930E94F906E4EBF0E00E947F051D
:100960000E94B4052F913F914F915F910E9409061B
:10097000DD2351F09058A2EA2AED3FE049EC5FE315
:10098000D0785D270E944304DF910C94B4050E9447
:10099000DB040C94B4050E94AD0558F00E94A60536
:1009A00040F029F45F3F29F00C94760551110C9426
:1009B000E8050C947C050E94C50568F39923B1F302
:1009C000552391F3951B550BBB27AA276217730775
:1009D000840738F09F5F5F4F220F331F441FAA1F09
:1009E000A9F335D00E2E3AF0E0E832D091505040C5
:1009F000E695001CCAF72BD0FE2F29D0660F771F73
:100A0000881FBB1F261737074807AB07B0E809F058
:100A1000BB0B802DBF01FF2793585F4F3AF09E3FDD
:100A2000510578F00C9476050C94E8055F3FE4F3EB
:100A3000983ED4F3869577956795B795F7959F5F20
:100A4000C9F7880F911D9695879597F90895E1E06C
:100A5000660F771F881FBB1F621773078407BA07CB
:100A600020F0621B730B840BBA0BEE1F88F7E09526
:100A70000895E89409C097FB3EF490958095709591
:100A800061957F4F8F4F9F4F9923A9F0F92F96E9DA
:100A9000BB279395F695879577956795B795F1114F
:100AA000F8CFFAF4BB0F11F460FF1BC06F5F7F4FEC
:100AB0008F4F9F4F16C0882311F096E911C07723FE
:100AC00021F09EE8872F762F05C0662371F096E807
:100AD000862F70E060E02AF09A95660F771F881FD6
:100AE000DAF7880F9695879597F9089597F99F6794
:100AF00080E870E060E008959FEF80EC0895DF9358
:100B0000CF931F930F93FF92EF92DF927B018C01A3
:100B1000689406C0DA2EEF010E940906FE01E894EF
:100B2000A5912591359145915591A6F3EF010E942C
:100B30004304FE019701A801DA9469F7DF90EF9072
:100B4000FF900F911F91CF91DF91089500240A9497
:100B50001616170618060906089500240A94121698
:100B60001306140605060895092E0394000C11F4CB
:100B7000882352F0BB0F40F4BF2B11F460FF04C078
:100B80006F5F7F4F8F4F9F4F089557FD9058440FD1
:100B9000551F59F05F3F71F04795880F97FB991FDC
:100BA00061F09F3F79F08795089512161306140699
:100BB000551FF2CF4695F1DF08C016161706180626
:100BC000991FF1CF86957105610508940895E89401
:100BD000BB2766277727CB0197F908959B01AC01C6
:100BE00060E070E080E89FE30C94C7040E9409066F
:100BF0000C94B4050E94A60538F00E94AD0520F0C3
:100C0000952311F00C9476050C947C0511240C941A
:100C1000E8050E94C50570F3959FC1F3950F50E05C
:100C2000551F629FF001729FBB27F00DB11D639F9E
:100C3000AA27F00DB11DAA1F649F6627B00DA11D44
:100C4000661F829F2227B00DA11D621F739FB00DEA
:100C5000A11D621F839FA00D611D221F749F33275A
:100C6000A00D611D231F849F600D211D822F762FF3
:100C70006A2F11249F5750409AF0F1F088234AF0D0
:100C8000EE0FFF1FBB1F661F771F881F915050403C
:100C9000A9F79E3F510580F00C9476050C94E80569
:100CA0005F3FE4F3983ED4F3869577956795B795C3
:100CB000F795E7959F5FC1F7FE2B880F911D9695DD
:100CC000879597F90895FA01EE0FFF1F30962105D9
:100CD0003105A1F16115710561F48038BFE39B070F
:100CE00049F168949038810561F08038BFEF9B0727
:100CF00041F099234AF5FF3FE1053105210519F13E
:100D0000E8940894E795D901AA2329F4AB2FBE2FC4
:100D1000F85FD0F310C0FF5F70F4A695E0F7F739E5
:100D200050F019F0FF3A38F49F779F930DD00F9051
:100D300007FC9058089546F00C947C0560E070E044
:100D400080E89FE308954FE79F775F934F933F932A
:100D50002F930E948E072F913F914F915F910E9498
:100D6000F6050C94050719F416F40C947C050C9404
:100D700037070E94CD05B8F39923C9F3B6F39F57FF
:100D8000550B87FF0E9445070024A0E640EA90012A
:100D900080585695979528F4805C660F771F881FBA
:100DA00020F026173707480730F4621B730B840BBB
:100DB000202931294A2BA6951794079420253125FF
:100DC0004A2758F7660F771F881F20F02617370726
:100DD000480730F4620B730B840B200D311D411D4D
:100DE000A09581F7B901842F9158880F9695879522
:100DF00008959B01AC010C94F60529F416F00C94AF
:100E000076050C94E7050C947C050E94CD05A8F3AB
:100E10009638A0F707F80F92E8942BE33AEA48EBEC
:100E20005FE70E940C060F920F920F924DB75EB7CC
:100E30000F920E94D607E1EEF0E00E947F054F91ED
:100E40005F91EF91FF91E595EE1FFF1F49F0FE576F
:100E5000E0684427EE0F441FFA95E1F74195550BE2
:100E60000E9450070F9007FE0C94EE0508959F3FD7
:100E700031F0915020F4879577956795B795880F55
:100E8000911D9695879597F9089591505040660F5A
:100E9000771F881FD2F708950C9476050C943707B6
:100EA0000E94CD05D8F39923C9F3940F511DA3F3E4
:100EB0009150504094F059F0882332F0660F771F1C
:100EC000881F91505040C1F79E3F51052CF7880F65
:100ED000911D9695879597F908955F3FACF0983EE0
:100EE0009CF0BB27869577956795B79508F4B16018
:100EF0009395C1F7BB0F58F711F460FFE8CF6F5F10
:100F00007F4F8F4F9F4FE3CF0C94E80516F00C9462
:100F100037070C947C0568940C9476050E94CD05E7
:100F2000A8F39923C1F3AEF3DF93CF931F930F93ED
:100F3000FF92C92FDD2788232AF02197660F771F9C
:100F4000881FDAF720E030E040E85FEB9FE3883964
:100F500020F0803E38F021968F770E942C04E9E043
:100F6000F1E004C00E942C04E6E3F1E00E947F055A
:100F70008B01BE01EC01FB2E6F5771097595771F30
:100F8000880B990B0E943B0528E132E741E35FE3C0
:100F90000E940906AF2D9801AE01FF900F911F919D
:100FA000CF91DF910E9443040C94B405FA01DC0157
:100FB000AA0FBB1F9B01AC01BF5728F42227332780
:100FC0004427507820C0B75190F4AB2F00244695A9
:100FD00037952795011CA395D2F3002071F0220FBD
:100FE000331F441FB395DAF30ED00C942B046130F9
:100FF0007105A0E88A07B94630F49B01AC01662769
:10100000772788279078309621F020833183428398
:1010100053830895BB274A3031F4992322F4BDE26B
:10102000909581959F4F0C941608BB27FB0155277F
:10103000AA27880F991FAA1FA41710F0A41B839535
:101040005051B9F7A05DAA3308F0A95DA1930097AC
:1010500079F7B111B1931192CB010C942F08DC01F7
:10106000FC01672F71917723E1F7329704C07C91DF
:101070006D9370836291AE17BF07C8F30895F8941B
:02108000FFCFA0
:10108200466C65782073656E736F72207265616459
:0A109200696E673A20000D0A0000A5
:00000001FF
